:100000000C942A000C9485000C9485000C948500B7
:100010000C9485000C9485000C9485000C9485004C
:100020000C9485000C9485000C9485000C9485003C
:100030000C9485000C9485000C9485000C9485002C
:100040000C9485000C9485000C9485000C9485001C
:100050000C94850011241FBECFE5D8E0DEBFCDBFD4
:0C0060000E9464000C943400F894FFCF60
:10006C008130910589F01CF4892B39F022C0823043
:10007C00910589F00397B1F01CC081E0672B09F45E
:10008C0080E081958ABB089581E0672B09F480E0BC
:10009C00819587BB089581E0672B09F480E08195F9
:1000AC0084BB089581E0672B09F480E0819581BBC6
:0C00BC0008951ABA17BA14BA11BA0895C0
:1000C80060E070E080E090E00E94740061E070E021
:1000D80080E090E00E9436000E9481008BBBFCCF3C
:1000E800892B41F087B3806B87BB8DB18065682B06
:0A00F8006DB90895BE9A6E9A08953E
:08010200779BFECF8FB1089539
:04010A000C94000051
:00000001FF
