:100000000C942A000C94BB000C94BB000C94BB0015
:100010000C94BB000C94BB000C94BB000C94BB0074
:100020000C94BB000C94BB000C94BB000C94BB0064
:100030000C94BB000C94BB000C94BB000C94BB0054
:100040000C94BB000C94BB000C94BB000C94BB0044
:100050000C94BB0011241FBECFE5D8E0DEBFCDBF9E
:0C0060000E9464000C943400F894FFCF60
:10006C008130910589F01CF4892B39F022C0823043
:10007C00910589F00397B1F01CC081E0672B09F45E
:10008C0080E081958ABB089581E0672B09F480E0BC
:10009C00819587BB089581E0672B09F480E08195F9
:1000AC0084BB089581E0672B09F480E0819581BBC6
:0C00BC0008951ABA17BA14BA11BA0895C0
:1000C80061E070E080E090E00E9436000E94B2009B
:1000D80082E00E94B7000E947E008130910521F4E1
:1000E8000E94A4008BBBF7CF0297A9F781E40E9476
:0400F8009400F1CFB0
:1000FC0006B607FEFDCF81B1982F987F807F8036A2
:10010C0039F0983A41F0903B99F782E090E00895ED
:0C011C0081E090E0089582E090E00895FA
:1001280083B984EC86BF06B607FEFDCF91B1987FF0
:1001380021E030E0983B11F020E030E0C90108955B
:1001480084EC86BF06B607FEFDCF81B1807F80387C
:0C01580011F0803911F483B1089508956E
:0A01640083E081B98FEF80B90895A0
:08016E0082B984EC86BF0895FC
:040176000C940000E5
:00000001FF
