:100000000C942A000C94BE000C94BE000C94BE000C
:100010000C94BE000C94BE000C94BE000C94BE0068
:100020000C94BE000C94BE000C94BE000C94BE0058
:100030000C94BE000C94BE000C94BE000C94BE0048
:100040000C94BE000C94BE000C94BE000C94BE0038
:100050000C94BE0011241FBECFE5D8E0DEBFCDBF9B
:0C0060000E9464000C943400F894FFCF60
:10006C008130910589F01CF4892B39F022C0823043
:10007C00910589F00397B1F01CC081E0672B09F45E
:10008C0080E081958ABB089581E0672B09F480E0BC
:10009C00819587BB089581E0672B09F480E08195F9
:1000AC0084BB089581E0672B09F480E0819581BBC6
:0C00BC0008951ABA17BA14BA11BA0895C0
:1000C80061E070E080E090E00E9436000E94B3009A
:1000D80082E00E94B9000E947E008130910521F4DF
:1000E8000E94A5008BBBF7CF0297A9F781E40E9475
:0400F8009400F1CFB0
:1000FC0006B607FEFDCF81B1982F987F807F8036A2
:10010C0039F0983A41F0903B99F782E090E00895ED
:0C011C0081E090E0089582E090E00895FA
:1001280083B986B7846C86BF06B607FEFDCF91B14A
:10013800987F21E030E0983B11F020E030E0C901E1
:02014800089518
:10014A0086B7846C86BF06B607FEFDCF81B1887F6D
:0C015A00803811F483B108958FEF0895F0
:0C01660081B1836081B98FEF80B90895EA
:0A01720082B986B7846C86BF089539
:04017C000C940000DF
:00000001FF
