:100000000C942A000C945D000C945D000C945D002F
:100010000C945D000C945D000C945D000C945D00EC
:100020000C945D000C945D000C945D000C945D00DC
:100030000C945D000C945D000C945D000C945D00CC
:100040000C945D000C945D000C945D000C945D00BC
:100050000C945D0011241FBECFE5D8E0DEBFCDBFFC
:0C0060000E9436000C943400F894FFCF8E
:10006C0063E070E081E090E00E944C0080E0C1E031
:10007C00C80F0E9459002FEF89E698E1215080406B
:0C008C009040E1F700C000008C2FF1CF85
:10009800892B41F087B3806B87BB8DB18065682B56
:0A00A8006DB90895BE9A6E9A08958E
:0800B2008FB9779BFECF089582
:0400BA000C940000A2
:00000001FF
