:100000000C942A000C94F9000C94F9000C94F9005B
:100010000C94F9000C94F9000C94F9000C94F9007C
:100020000C94F9000C94F9000C94F9000C94F9006C
:100030000C94F9000C94F9000C94F9000C94F9005C
:100040000C94F9000C94F9000C94F9000C94F9004C
:100050000C94F90011241FBECFE5D8E0DEBFCDBF60
:0C0060000E9436000C943400F894FFCF8E
:10006C000E94F0000E94F5000E94FD000E94FB001F
:10007C0060E070E081E090E00E948E00892B99F0A6
:10008C0061E070E082E090E00E94C60061E070E008
:10009C0087E090E00E94C60061E070E083E090E0B1
:1000AC000E94C60012C060E070E082E090E00E9406
:1000BC00C60060E070E087E090E00E94C60060E05F
:1000CC0070E083E090E00E94C60066E070E083E0A0
:1000DC0090E00E948E00892B29F081E090E00E9434
:1000EC00EA0004C080E090E00E94EA0062E070E068
:1000FC0083E090E00E948E00892B29F081E090E053
:10010C000E94E400B5CF80E090E00E94E400B0CF04
:10011C0081309105A1F01CF4892B39F02EC082306E
:10012C009105B9F00397F9F028C089B390E002C0AB
:10013C00959587956A95E2F781709927089586B30E
:10014C0090E002C0959587956A95E2F781709927A2
:10015C00089583B390E002C0959587956A95E2F770
:10016C0081709927089580B390E002C0959587958A
:10017C006A95E2F781709927089580E090E00895E0
:10018C00672B71F08330910549F08730910521F090
:10019C00029799F4AA9A0895AF9A0895939A08959C
:1001AC008330910549F08730910521F0029729F4AD
:0C01BC00AA980895AF98089593980895AC
:0C01C800892B11F0DB9A0895DB98089554
:0C01D400892B11F0DA9A0895DA9808954A
:0A01E00084B3846884BB8B9A0895F1
:0801EA00B8988E988A980895D8
:0401F2000C94000069
:0401F600D39A0895FB
:0401FA00D29A0895F8
:00000001FF
