:100000000C942A000C9468000C9468000C9468000E
:100010000C9468000C9468000C9468000C946800C0
:100020000C9468000C9468000C9468000C946800B0
:100030000C9468000C9468000C9468000C946800A0
:100040000C9468000C9468000C9468000C94680090
:100050000C94680011241FBECFE5D8E0DEBFCDBFF1
:0C0060000E9460000C943400F894FFCF64
:10006C008130910561F082309105A1F0892B09F561
:10007C0085B7682B65BF8BB780648BBF089585B738
:10008C00660F771F660F771F682B65BF8BB780686D
:10009C008BBF089584B70024769567950794769561
:1000AC0067950794762F602D682B64BF8BB78062A1
:0400BC008BBF089559
:1000C00063E070E080E090E00E9436007894FFCF1B
:0400D0000C9400008C
:00000001FF
