:100000000C942A000C94E7020C94E7020C94E7028B
:100010000C94E7020C94E7020C94E7020C94E702BC
:100020000C94E7020C94E7020C94E7020C94E702AC
:100030000C94E7020C9467010C94E7020C94E7021D
:100040000C94E7020C94E7020C94E7020C94E7028C
:100050000C94E70211241FBECFE5D8E0DEBFCDBF70
:10006000E4E5F0E040E017C0B591A5913591259108
:10007000059107FD0CC095918591EF01F92FE82FAF
:1000800005900D92A217B307D9F7FE0104C01D9287
:10009000A217B307E1F7E435F40731F70E945202E3
:0800A0000C945200F894FFCF0C
:1000A80010C00E94C10258F00E94BA0240F029F420
:1000B8005F3F29F00C94D50251110C94C9020C949D
:1000C800E4020E94300268F39923B1F3552391F3B7
:1000D800951B550BBB27AA2762177307840738F0AF
:1000E8009F5F5F4F220F331F441FAA1FA9F335D00C
:1000F8000E2E3AF0E0E832D091505040E695001CC0
:10010800CAF72BD0FE2F29D0660F771F881FBB1F79
:10011800261737074807AB07B0E809F0BB0B802D57
:10012800BF01FF2793585F4F3AF09E3F510578F083
:100138000C94D5020C94C9025F3FE4F3983ED4F3C3
:10014800869577956795B795F7959F5FC9F7880F57
:10015800911D9695879597F90895E1E0660F771FA9
:10016800881FBB1F621773078407BA0720F0621B3A
:0E017800730B840BBA0BEE1F88F7E095089509
:1001860011C00E94BA0238F00E94C10220F039F470
:100196009F3F19F426F40C94E4020EF4E095E7FB75
:1001A6000C94D502E92F0E94300258F3BA17620761
:1001B60073078407950720F079F4A6F50C94C80216
:1001C6000EF4E0950B2EBA2FA02D0B01B90190016C
:1001D6000C01CA01A0011124FF27591B99F0593FB0
:1001E60050F4503E68F11A16F040A22F232F342FF8
:1001F6004427585FF3CF469537952795A795F04046
:100206005395C9F77EF41F16BA0B620B730B840B5A
:10021600BAF09150A1F0FF0FBB1F661F771F881F12
:10022600C2F70EC0BA0F621F731F841F48F487956A
:1002360077956795B795F7959E3F08F0B0CF93955C
:0E024600880F08F09927EE0F97958795089579
:10025400E89409C097FB3EF490958095709561955C
:100264007F4F8F4F9F4F9923A9F0F92F96E9BB2712
:100274009395F695879577956795B795F111F8CF8E
:10028400FAF4BB0F11F460FF1BC06F5F7F4F8F4FF9
:100294009F4F16C0882311F096E911C0772321F0EF
:1002A4009EE8872F762F05C0662371F096E8862F87
:1002B40070E060E02AF09A95660F771F881FDAF7DE
:0A02C400880F9695879597F9089525
:1002CE001F920F920FB60F9211242F933F934F93BD
:1002DE005F936F937F938F939F93AF93BF93EF93A0
:1002EE00FF938CB1813459F461E070E087E090E0C7
:1002FE000E94700281E090E00E94CF020CC0823416
:10030E0051F460E070E087E090E00E94700280E0BF
:10031E0090E00E94CF02FF91EF91BF91AF919F911C
:10032E008F917F916F915F914F913F912F910F9090
:08033E000FBE0F901F901895EF
:100346009B016AB122953295307F3227207F322772
:10035600262B2AB92AB1440F551F440F551F440FA7
:10036600551F422B4AB9BC01990F880B990B0E9465
:100376002C019B01AC0160E074E284E799E40E94E1
:10038600E00220E030E040E85FE30E94AC020E9419
:10039600B30269B96F3F710511F00CF070BD089595
:1003A6000E94380288F09F5798F0B92F9927B751C5
:1003B600B0F0E1F0660F771F881F991F1AF0BA9503
:1003C600C9F714C0B13091F00E94C802B1E0089597
:1003D6000C94C802672F782F8827B85F39F0B93F89
:1003E600CCF3869577956795B395D9F73EF49095B6
:0E03F6008095709561957F4F8F4F9F4F0895B2
:100404008130910589F01CF4892B39F022C08230A7
:10041400910589F00397B1F01CC081E0672B09F4C2
:1004240080E081958ABB089581E0672B09F480E020
:10043400819587BB089581E0672B09F480E081955D
:1004440084BB089581E0672B09F480E0819581BB2A
:0C04540008951ABA17BA14BA11BA089524
:1004600057FD9058440F551F59F05F3F71F0479565
:10047000880F97FB991F61F09F3F79F0879508954A
:10048000121613061406551FF2CF4695F1DF08C069
:10049000161617061806991FF1CF86957105610586
:0404A000089408951F
:1004A40061E070E082E090E00E9402028FE19EE44D
:1004B4000197F1F700C0000041E050E061E070E016
:1004C40080E895E20E94A30180E090E00E949F02F0
:0C04D4000E94DB020E94E9027894FFCF36
:1004E000672B71F08330910549F08730910521F039
:1004F000029799F4AA9A0895AF9A0895939A089545
:100500008330910549F08730910521F0029729F455
:0C051000AA980895AF9808959398089554
:10051C00092E0394000C11F4882352F0BB0F40F405
:10052C00BF2B11F460FF04C06F5F7F4F8F4F9F4F45
:02053C00089520
:10053E00009711F4579A08958130910511F4569A47
:0A054E000895029709F4559A0895E4
:0E0558005058BB27AA270E94C3000C948E02A5
:0E0566000E94D3016894B1110C94C90208954B
:0E05740000240A9416161706180609060895A4
:0E05820000240A9412161306140605060895A6
:0E059000E894BB2766277727CB0197F90895DB
:0C059E00892B11F0DB9A0895DB9808957A
:0C05AA0097F99F6780E870E060E008951A
:0A05B60084B3846884BB8B9A089517
:0805C0000E9454000C948E020D
:0605C8009FEF80EC089596
:0405CE000C94000089
:0405D200D39A08951B
:00000001FF
