:100000000C942E000C9491020C9491020C94910289
:100010000C9491020C9491020C9491020C94910214
:100020000C9491020C9491020C9491020C94910204
:100030000C9491020C9491020C9491020C949102F4
:100040000C9491020C9491020C9491020C949102E4
:100050000C949102006000710005260011241FBE5F
:10006000CFE5D8E0DEBFCDBFE4E5F0E040E017C06B
:10007000B591A59135912591059107FD0CC09591FC
:100080008591EF01F92FE82F05900D92A217B30784
:10009000D9F7FE0104C01D92A217B307E1F7EB35B3
:1000A000F40731F70E94A1010C945600F894FFCF99
:1000B000452BC9F181309105A9F01CF4892B39F049
:1000C000089582309105C9F0039711F108952AB37C
:1000D00081E090E002C0880F991F6A95E2F7822BB9
:1000E0008ABB089527B381E090E002C0880F991F72
:1000F0006A95E2F7822B87BB089524B381E090E0F4
:1001000002C0880F991F6A95E2F7822B84BB08957D
:1001100021B381E090E002C0880F991F6A95E2F751
:10012000822B81BB089581309105B1F01CF4892B9D
:1001300039F0089582309105D9F0039729F1089597
:100140002AB381E090E002C0880F991F6A95E2F718
:10015000809582238ABB089527B381E090E002C096
:10016000880F991F6A95E2F78095822387BB0895CF
:1001700024B381E090E002C0880F991F6A95E2F7EE
:100180008095822384BB089521B381E090E002C072
:10019000880F991F6A95E2F78095822381BB0895A5
:1001A000452BC9F181309105A9F01CF4892B39F058
:1001B000089582309105C9F0039711F108952BB38A
:1001C00081E090E002C0880F991F6A95E2F7822BC8
:1001D0008BBB089528B381E090E002C0880F991F7F
:1001E0006A95E2F7822B88BB089525B381E090E001
:1001F00002C0880F991F6A95E2F7822B85BB08958C
:1002000022B381E090E002C0880F991F6A95E2F75F
:10021000822B82BB089581309105B1F01CF4892BAB
:1002200039F0089582309105D9F0039729F10895A6
:100230002BB381E090E002C0880F991F6A95E2F726
:10024000809582238BBB089528B381E090E002C0A3
:10025000880F991F6A95E2F78095822388BB0895DD
:1002600025B381E090E002C0880F991F6A95E2F7FC
:100270008095822385BB089522B381E090E002C07F
:10028000880F991F6A95E2F78095822382BB0895B3
:1002900061E070E083E090E00E94D90141E050E02D
:1002A00060E070E082E090E00E94580041E050E0A1
:1002B00061E070E082E090E00E94580041E050E090
:1002C00062E070E082E090E00E94580040E050E080
:1002D00061E070E082E090E00E94D0002FEF80E7C4
:1002E00092E0215080409040E1F700C000000E9461
:1002F000890288E30E943B028FE99FE00197F1F7B2
:1003000000C000008CE00E943B028FE99FE0019753
:10031000F1F700C0000082E00E943B028FE99FE0FD
:100320000197F1F700C0000086E00E943B029FEFBA
:1003300020E782E0915020408040E1F700C00000BB
:0203400008951E
:100342000E9448016FE070E080E090E00E947B0232
:1003520080E690E00E946C02C0E2D0E00E948D0232
:100362002FEF89E698E1215080409040E1F700C0EC
:100372000000219799F782E00E943B028FE99FE0FB
:100382000197F1F700C000006FE070E080E090E0BC
:100392000E947B0280E690E00E946C029FEF29E6B9
:1003A20088E1915020408040E1F700C00000D4CFA6
:1003B2008130910589F01CF4892B39F022C08230FA
:1003C200910589F00397B1F01CC081E0672B09F415
:1003D20080E081958ABB089581E0672B09F480E073
:1003E200819587BB089581E0672B09F480E08195B0
:1003F20084BB089581E0672B09F480E0819581BB7D
:0C04020008951ABA17BA14BA11BA089576
:10040E008130910561F01CF4892B39F00EC08230D9
:10041E00910539F0039739F008C06BBB089568BB9E
:10042E00089565BB089562BB08951ABA17BA14BA37
:04043E0011BA089552
:10044200CF93C82F41E050E060E070E082E090E09E
:100452000E94D0006C2F70E083E090E00E940702BF
:100462000E9455028FE39CE90197F1F700C000005A
:04047200CF91089589
:10047600CF93C82F40E050E060E070E082E090E06B
:100486000E94D0006C2F70E083E090E00E9407028B
:100496000E9455028FE39CE90197F1F700C0000026
:0404A600CF91089555
:1004AA0041E050E062E070E082E090E00E94D0001B
:1004BA008FE396E00197F1F700C0000040E050E0BA
:0E04CA0062E070E082E090E00E94D0000895B1
:1004D800CF93DF93EC018881882331F021960E9425
:0E04E800210289918111FBCFDF91CF91089500
:1004F600892B31F0862F8F70806C0E943B02089505
:0C050600862F8F7080680E943B020895D1
:0805120081E00E943B02089504
:08051A008CE10E943B020895F0
:040522000C94000035
:10052600414C4558313233343536373839302A2341
:0105360000C4
:00000001FF
