:100000000C942E000C94E7030C94E7030C94E70384
:100010000C94E7030C94E7030C94E7030C94E703B8
:100020000C94E7030C94E7030C94E7030C94E703A8
:100030000C94E7030C94E7030C94E7030C94E70398
:100040000C94E7030C94E7030C94E7030C94E70388
:100050000C94E703006000640007D60011241FBE63
:10006000CFE5D8E0DEBFCDBFE4E5F0E040E017C06B
:10007000B591A59135912591059107FD0CC09591FC
:100080008591EF01F92FE82F05900D92A217B30784
:10009000D9F7FE0104C01D92A217B307E1F7EB35B3
:1000A000F40731F70E942A020C945600F894FFCF0F
:1000B000452BC9F181309105A9F01CF4892B39F049
:1000C000089582309105C9F0039711F108952AB37C
:1000D00081E090E002C0880F991F6A95E2F7822BB9
:1000E0008ABB089527B381E090E002C0880F991F72
:1000F0006A95E2F7822B87BB089524B381E090E0F4
:1001000002C0880F991F6A95E2F7822B84BB08957D
:1001100021B381E090E002C0880F991F6A95E2F751
:10012000822B81BB089581309105B1F01CF4892B9D
:1001300039F0089582309105D9F0039729F1089597
:100140002AB381E090E002C0880F991F6A95E2F718
:10015000809582238ABB089527B381E090E002C096
:10016000880F991F6A95E2F78095822387BB0895CF
:1001700024B381E090E002C0880F991F6A95E2F7EE
:100180008095822384BB089521B381E090E002C072
:10019000880F991F6A95E2F78095822381BB0895A5
:1001A000452BC9F181309105A9F01CF4892B39F058
:1001B000089582309105C9F0039711F108952BB38A
:1001C00081E090E002C0880F991F6A95E2F7822BC8
:1001D0008BBB089528B381E090E002C0880F991F7F
:1001E0006A95E2F7822B88BB089525B381E090E001
:1001F00002C0880F991F6A95E2F7822B85BB08958C
:1002000022B381E090E002C0880F991F6A95E2F75F
:10021000822B82BB089581309105B1F01CF4892BAB
:1002200039F0089582309105D9F0039729F10895A6
:100230002BB381E090E002C0880F991F6A95E2F726
:10024000809582238BBB089528B381E090E002C0A3
:10025000880F991F6A95E2F78095822388BB0895DD
:1002600025B381E090E002C0880F991F6A95E2F7FC
:100270008095822385BB089522B381E090E002C07F
:10028000880F991F6A95E2F78095822382BB0895B3
:100290000FC00E94C80338F00E94CF0320F09523BE
:1002A00011F00C94D6030C94E40311240C94C203B3
:1002B0000E94F40270F3959FC1F3950F50E0551F13
:1002C000629FF001729FBB27F00DB11D639FAA27AB
:1002D000F00DB11DAA1F649F6627B00DA11D661FFA
:1002E000829F2227B00DA11D621F739FB00DA11D1B
:1002F000621F839FA00D611D221F749F3327A00DD5
:10030000611D231F849F600D211D822F762F6A2F70
:1003100011249F5750409AF0F1F088234AF0EE0FD5
:10032000FF1FBB1F661F771F881F91505040A9F702
:100330009E3F510580F00C94D6030C94C2035F3F9E
:10034000E4F3983ED4F3869577956795B795F7953E
:10035000E7959F5FC1F7FE2B880F911D96958795B6
:0403600097F908956C
:10036400E89409C097FB3EF490958095709561954B
:100374007F4F8F4F9F4F9923A9F0F92F96E9BB2701
:100384009395F695879577956795B795F111F8CF7D
:10039400FAF4BB0F11F460FF1BC06F5F7F4F8F4FE8
:1003A4009F4F16C0882311F096E911C0772321F0DE
:1003B4009EE8872F762F05C0662371F096E8862F76
:1003C40070E060E02AF09A95660F771F881FDAF7CD
:0A03D400880F9695879597F9089514
:1003DE008AB3806F8ABB41E050E061E070E081E05B
:1003EE0090E00E94580041E050E062E070E081E051
:1003FE0090E00E94580041E050E063E070E081E040
:10040E0090E00E94580040E050E062E070E081E031
:10041E0090E00E94D00082E00E94940288E20E9446
:10042E0094028CE00E94940286E00E9494020E9444
:10043E00DC032FEF80E792E0215080409040E1F7FF
:06044E0000C0000008954B
:1004540047E050E061E070E081E090E00E946403D6
:100464000E94EF012FEF81EE94E0215080409040F4
:10047400E1F700C000000E94E9030E94B303EC010D
:100484000E94DC03BE01DD0F880B990B0E94B401AE
:100494002AE137E64CE950E40E94E0030E94BA03E3
:1004A400CB010E94160380E690E00E9499032FEF8F
:1004B40089E698E1215080409040E1F700C00000B7
:0204C400DACF8D
:1004C600CF93C82F41E050E061E070E081E090E01A
:1004D6000E94D0008BB38F709C2F907F892B8BBB93
:1004E6000E944D032FEF39EF80E0215030408040CD
:1004F600E1F700C000008BB3282F2F7030E1C39FB7
:10050600C0011124822B8BBB0E944D038FEF99EF04
:1005160020E0815090402040E1F700C00000CF91DC
:02052600089536
:10052800CF93C82F40E050E061E070E081E090E0B8
:100538000E94D0008BB38F709C2F907F892B8BBB30
:100548000E944D032FEF39EF80E02150304080406A
:10055800E1F700C000008BB3282F2F7030E1C39F54
:10056800C0011124822B8BBB0E944D038FEF99EFA2
:1005780020E0815090402040E1F700C00000CF917A
:020588000895D4
:10058A000E94FC0288F09F5798F0B92F9927B7511B
:10059A00B0F0E1F0660F771F881F991F1AF0BA951D
:1005AA00C9F714C0B13091F00E94C103B1E00895B7
:1005BA000C94C103672F782F8827B85F39F0B93FA9
:1005CA00CCF3869577956795B395D9F73EF49095D0
:0E05DA008095709561957F4F8F4F9F4F0895CC
:1005E80057FD9058440F551F59F05F3F71F04795DC
:1005F800880F97FB991F61F09F3F79F087950895C1
:10060800121613061406551FF2CF4695F1DF08C0DF
:10061800161617061806991FF1CF869571056105FC
:040628000894089595
:10062C00CF93DF93CDB7DEB72B970FB6F894DEBF21
:10063C000FBECDBF4AE0BE016F5F7F4F0E94A80383
:10064C00CE0101960E9499032B960FB6F894DEBF4B
:0A065C000FBECDBFDF91CF910895CE
:10066600BB27FB015527AA27880F991FAA1FA41786
:1006760010F0A41B83955051B9F7A05DAA3308F07A
:10068600A95DA193009779F7B111B1931192CB01AE
:040696000C94890334
:10069A0041E050E063E070E081E090E00E94D00029
:1006AA008FE396E00197F1F700C0000040E050E0C8
:0E06BA0063E070E081E090E00E94D0000895BF
:1006C80097B1892B87B987B10024769567950794E8
:1006D800769567950794762F602D682B67B986B154
:0806E800482B46B9379A08952A
:1006F000092E0394000C11F4882352F0BB0F40F430
:10070000BF2B11F460FF04C06F5F7F4F8F4F9F4F6F
:0207100008954A
:10071200DC01FC01672F71917723E1F7329704C066
:100722007C916D9370836291AE17BF07C8F30895F1
:10073200CF93DF93EC018881882331F021960E94C8
:0E074200630289918111FBCFDF91CF91089561
:10075000BB274A3031F4992322F4BDE2909581956C
:060760009F4F0C943403CE
:0E076600349BFECF84B125B190E0922B089514
:0E0774000E94C5026894B1110C94C20308954E
:0E078200E894BB2766277727CB0197F90895E7
:0E07900000240A941616170618060906089586
:0E079E0000240A941216130614060506089588
:0C07AC0097F99F6780E870E060E0089516
:0807B80081E00E949402089503
:0807C0000E9448010C9478032B
:0607C8009FEF80EC089594
:0407CE000C94000087
:0407D200369A0895B6
:0407D600206D56003C
:00000001FF
