:100000000C942A000C94B7010C94B7010C94B7011E
:100010000C94B7010C94B7010C94B7010C94B70180
:100020000C94B7010C94B7010C94B7010C94B70170
:100030000C94B7010C94B7010C94B7010C94B70160
:100040000C94B7010C94B7010C94B7010C94B70150
:100050000C94B70111241FBECFE5D8E0DEBFCDBFA1
:10006000E4E5F0E040E017C0B591A5913591259108
:10007000059107FD0CC095918591EF01F92FE82FAF
:1000800005900D92A217B307D9F7FE0104C01D9287
:10009000A217B307E1F7E435F40731F70E947C01BA
:0800A0000C945200F894FFCF0C
:1000A800452BC9F181309105A9F01CF4892B39F051
:1000B800089582309105C9F0039711F108952AB384
:1000C80081E090E002C0880F991F6A95E2F7822BC1
:1000D8008ABB089527B381E090E002C0880F991F7A
:1000E8006A95E2F7822B87BB089524B381E090E0FC
:1000F80002C0880F991F6A95E2F7822B84BB089586
:1001080021B381E090E002C0880F991F6A95E2F759
:10011800822B81BB089581309105B1F01CF4892BA5
:1001280039F0089582309105D9F0039729F108959F
:100138002AB381E090E002C0880F991F6A95E2F720
:10014800809582238ABB089527B381E090E002C09E
:10015800880F991F6A95E2F78095822387BB0895D7
:1001680024B381E090E002C0880F991F6A95E2F7F6
:100178008095822384BB089521B381E090E002C07A
:10018800880F991F6A95E2F78095822381BB0895AD
:10019800452BC9F181309105A9F01CF4892B39F060
:1001A800089582309105C9F0039711F108952BB392
:1001B80081E090E002C0880F991F6A95E2F7822BD0
:1001C8008BBB089528B381E090E002C0880F991F87
:1001D8006A95E2F7822B88BB089525B381E090E009
:1001E80002C0880F991F6A95E2F7822B85BB089594
:1001F80022B381E090E002C0880F991F6A95E2F768
:10020800822B82BB089581309105B1F01CF4892BB3
:1002180039F0089582309105D9F0039729F10895AE
:100228002BB381E090E002C0880F991F6A95E2F72E
:10023800809582238BBB089528B381E090E002C0AB
:10024800880F991F6A95E2F78095822388BB0895E5
:1002580025B381E090E002C0880F991F6A95E2F704
:100268008095822385BB089522B381E090E002C087
:10027800880F991F6A95E2F78095822382BB0895BB
:100288000E94A6012FEF83ED90E32150804090401B
:10029800E1F700C0000041E050E060E070E080E07D
:1002A80090E00E94CC0040E050E061E070E080E027
:0802B80090E00E94CC000895C3
:1002C0000E94A6012FEF83ED90E3215080409040E3
:1002D000E1F700C0000040E050E060E070E080E046
:1002E00090E00E94CC0041E050E061E070E080E0EE
:0802F00090E00E94CC0008958B
:1002F8000E9495010E9460012FEF83E294EF215044
:1003080080409040E1F700C000000E9444012FEFB8
:1003180083E294EF215080409040E1F700C0000054
:02032800E9CF1B
:10032A0041E050E060E070E080E090E00E9454001C
:10033A0041E050E061E070E080E090E00E9454000B
:02034A00089514
:10034C0040E050E060E070E080E090E00E94CC0083
:10035C0040E050E061E070E080E090E00E94CC0072
:02036C000895F2
:04036E000C940000EB
:00000001FF
