:100000000C9430000C9468030C9468030C946803FF
:100010000C9468030C9468030C9468030C946803B4
:100020000C9468030C9468030C9468030C946803A4
:100030000C9468030C9468030C9468030C94680394
:100040000C9468030C9468030C9468030C94680384
:100050000C9468030060006180006100620006D8B3
:1000600011241FBECFE5D8E0DEBFCDBFE4E5F0E050
:1000700040E017C0B591A59135912591059107FDF7
:100080000CC095918591EF01F92FE82F05900D9205
:10009000A217B307D9F7FE0104C01D92A217B30738
:1000A000E1F7E036F40731F70E945A000C9458004B
:0400B000F894FFCFF2
:1000B4000E94C80184E60E946A038CB724E6829FEA
:1000C400C00111246FEF70E00E940503609360008B
:1000D40082E090E00E94BA0265E070E080E490E083
:1000E4000E944C038091600090E00E949D0285E292
:1000F4000E943B0214E6CFEFD0E060E070E082E0C3
:1001040090E00E940302892B21F180916100865FB7
:10011400809361000E946A0380916100189FC0016E
:100124001124BE010E940503609360000E946403D1
:100134008091600090E00E949D0285E20E943B0253
:100144008FEF99E628E1815090402040E1F700C00C
:10015400000061E070E082E090E00E940302892BDD
:1001640061F2809161008A50809361000E946A0369
:1001740080916100189FC0011124BE010E940503F3
:10018400609360000E9464038091600090E00E948C
:100194009D0285E20E943B028FEF99E628E181509F
:0C01A40090402040E1F700C00000A7CF11
:1001B000452BC9F181309105A9F01CF4892B39F048
:1001C000089582309105C9F0039711F108952AB37B
:1001D00081E090E002C0880F991F6A95E2F7822BB8
:1001E0008ABB089527B381E090E002C0880F991F71
:1001F0006A95E2F7822B87BB089524B381E090E0F3
:1002000002C0880F991F6A95E2F7822B84BB08957C
:1002100021B381E090E002C0880F991F6A95E2F750
:10022000822B81BB089581309105B1F01CF4892B9C
:1002300039F0089582309105D9F0039729F1089596
:100240002AB381E090E002C0880F991F6A95E2F717
:10025000809582238ABB089527B381E090E002C095
:10026000880F991F6A95E2F78095822387BB0895CE
:1002700024B381E090E002C0880F991F6A95E2F7ED
:100280008095822384BB089521B381E090E002C071
:10029000880F991F6A95E2F78095822381BB0895A4
:1002A000452BC9F181309105A9F01CF4892B39F057
:1002B000089582309105C9F0039711F108952BB389
:1002C00081E090E002C0880F991F6A95E2F7822BC7
:1002D0008BBB089528B381E090E002C0880F991F7E
:1002E0006A95E2F7822B88BB089525B381E090E000
:1002F00002C0880F991F6A95E2F7822B85BB08958B
:1003000022B381E090E002C0880F991F6A95E2F75E
:10031000822B82BB089581309105B1F01CF4892BAA
:1003200039F0089582309105D9F0039729F10895A5
:100330002BB381E090E002C0880F991F6A95E2F725
:10034000809582238BBB089528B381E090E002C0A2
:10035000880F991F6A95E2F78095822388BB0895DC
:1003600025B381E090E002C0880F991F6A95E2F7FB
:100370008095822385BB089522B381E090E002C07E
:10038000880F991F6A95E2F78095822382BB0895B2
:100390008AB3806F8ABB41E050E061E070E081E0A9
:1003A00090E00E94D80041E050E062E070E081E01F
:1003B00090E00E94D80041E050E060E070E081E011
:1003C00090E00E94D80040E050E062E070E081E000
:1003D00090E00E94500182E00E946C0288E20E943C
:1003E0006C028CE00E946C0286E00E946C020E940B
:1003F00064032FEF80E792E0215080409040E1F7C6
:0604000000C00000089599
:1004060081309105A1F01CF4892B39F02EC0823081
:100416009105B9F00397F9F028C089B390E002C0BE
:10042600959587956A95E2F781709927089586B321
:1004360090E002C0959587956A95E2F781709927B5
:10044600089583B390E002C0959587956A95E2F783
:1004560081709927089580B390E002C0959587959D
:100466006A95E2F781709927089580E090E00895F3
:10047600CF93C82F41E050E061E070E081E090E06A
:100486000E9450018BB38F709C2F907F892B8BBB62
:100496000E94EE022FEF39EF80E02150304080407D
:1004A600E1F700C000008BB3282F2F7030E1C39F07
:1004B600C0011124822B8BBB0E94EE028FEF99EFB5
:1004C60020E0815090402040E1F700C00000CF912D
:0204D600089587
:1004D800CF93C82F40E050E061E070E081E090E009
:1004E8000E9450018BB38F709C2F907F892B8BBB00
:1004F8000E94EE022FEF39EF80E02150304080401B
:10050800E1F700C000008BB3282F2F7030E1C39FA4
:10051800C0011124822B8BBB0E94EE028FEF99EF52
:1005280020E0815090402040E1F700C00000CF91CA
:02053800089524
:10053A00CF93DF93CDB7DEB72B970FB6F894DEBF14
:10054A000FBECDBF4AE0BE016F5F7F4F0E945903C5
:10055A00CE0101960E943D032B960FB6F894DEBF9A
:0A056A000FBECDBFDF91CF910895C1
:10057400CF93DF93EC0183B78F7C83BF41E050E0DE
:1005840063E070E081E090E00E94D80083B7C295F8
:10059400D295D07FDC27C07FDC27C82BC3BFDF9177
:0405A400CF91089556
:1005A800BB27FB015527AA27880F991FAA1FA41745
:1005B80010F0A41B83955051B9F7A05DAA3308F039
:1005C800A95DA193009779F7B111B1931192CB016D
:0405D8000C942D034F
:1005DC0041E050E060E070E081E090E00E9450016A
:1005EC008FE396E00197F1F700C0000040E050E087
:0E05FC0060E070E081E090E00E945001089500
:10060A0097FB072E16F4009407D077FD09D00E94B5
:10061A00190307FC05D03EF4909581959F4F0895E4
:08062A00709561957F4F089562
:10063200AA1BBB1B51E107C0AA1FBB1FA617B70706
:1006420010F0A61BB70B881F991F5A95A9F7809522
:080652009095BC01CD01089553
:10065A00DC01FC01672F71917723E1F7329704C01F
:10066A007C916D9370836291AE17BF07C8F30895AA
:10067A00CF93DF93EC018881882331F021960E9481
:0E068A003B0289918111FBCFDF91CF91089542
:1006980093B7977B93BF93B7987F93BF93B7892BF3
:0A06A80083BF83B7682B63BF08957A
:1006B200BB274A3031F4992322F4BDE2909581950B
:0606C2009F4F0C94D502CD
:0806C80081E00E946C0208951C
:0406D0000C94000086
:0406D4008CBF08953A
:0106D80064BD
:00000001FF
