:100000000C942A000C9452000C9452000C94520050
:100010000C9452000C9452000C9452000C94520018
:100020000C9452000C9452000C9452000C94520008
:100030000C9452000C9452000C9452000C945200F8
:100040000C9452000C9452000C9452000C945200E8
:100050000C94520011241FBECFE5D8E0DEBFCDBF07
:0C0060000E9436000C943400F894FFCF8E
:10006C000E944D00AA9A2FEF89E698E1215080401A
:10007C009040E1F700C00000AA982FEF89E698E1C4
:0E008C00215080409040E1F700C00000EBCF13
:0A009A0084B3846884BB8B9A089538
:0400A4000C940000B8
:00000001FF
