:100000000C942E000C9410040C9410040C94100406
:100010000C9410040C9410040C9410040C94100410
:100020000C9410040C9410040C9410040C94100400
:100030000C9410040C9410040C9410040C941004F0
:100040000C94B2010C9410040C9410040C94100441
:100050000C9410040060006400082C0011241FBEE2
:10006000CFE5D8E0DEBFCDBFE4E5F0E040E017C06B
:10007000B591A59135912591059107FD0CC09591FC
:100080008591EF01F92FE82F05900D92A217B30784
:10009000D9F7FE0104C01D92A217B307E1F7EB35B3
:1000A000F40731F70E94FD020C945600F894FFCF3C
:1000B000452BC9F181309105A9F01CF4892B39F049
:1000C000089582309105C9F0039711F108952AB37C
:1000D00081E090E002C0880F991F6A95E2F7822BB9
:1000E0008ABB089527B381E090E002C0880F991F72
:1000F0006A95E2F7822B87BB089524B381E090E0F4
:1001000002C0880F991F6A95E2F7822B84BB08957D
:1001100021B381E090E002C0880F991F6A95E2F751
:10012000822B81BB089581309105B1F01CF4892B9D
:1001300039F0089582309105D9F0039729F1089597
:100140002AB381E090E002C0880F991F6A95E2F718
:10015000809582238ABB089527B381E090E002C096
:10016000880F991F6A95E2F78095822387BB0895CF
:1001700024B381E090E002C0880F991F6A95E2F7EE
:100180008095822384BB089521B381E090E002C072
:10019000880F991F6A95E2F78095822381BB0895A5
:1001A000452BC9F181309105A9F01CF4892B39F058
:1001B000089582309105C9F0039711F108952BB38A
:1001C00081E090E002C0880F991F6A95E2F7822BC8
:1001D0008BBB089528B381E090E002C0880F991F7F
:1001E0006A95E2F7822B88BB089525B381E090E001
:1001F00002C0880F991F6A95E2F7822B85BB08958C
:1002000022B381E090E002C0880F991F6A95E2F75F
:10021000822B82BB089581309105B1F01CF4892BAB
:1002200039F0089582309105D9F0039729F10895A6
:100230002BB381E090E002C0880F991F6A95E2F726
:10024000809582238BBB089528B381E090E002C0A3
:10025000880F991F6A95E2F78095822388BB0895DD
:1002600025B381E090E002C0880F991F6A95E2F7FC
:100270008095822385BB089522B381E090E002C07F
:10028000880F991F6A95E2F78095822382BB0895B3
:100290000FC00E94EC0338F00E94F30320F0952376
:1002A00011F00C94FA030C940D0411240C94E60341
:1002B0000E941F0370F3959FC1F3950F50E0551FE7
:1002C000629FF001729FBB27F00DB11D639FAA27AB
:1002D000F00DB11DAA1F649F6627B00DA11D661FFA
:1002E000829F2227B00DA11D621F739FB00DA11D1B
:1002F000621F839FA00D611D221F749F3327A00DD5
:10030000611D231F849F600D211D822F762F6A2F70
:1003100011249F5750409AF0F1F088234AF0EE0FD5
:10032000FF1FBB1F661F771F881F91505040A9F702
:100330009E3F510580F00C94FA030C94E6035F3F56
:10034000E4F3983ED4F3869577956795B795F7953E
:10035000E7959F5FC1F7FE2B880F911D96958795B6
:0403600097F908956C
:100364001F920F920FB60F9211242F933F934F9326
:100374005F936F937F938F939F93AF93BF93CF9329
:10038400DF93EF93FF930E940004EC010E940504A5
:10039400BE01DD0F880B990B0E94F6012AE137E6B6
:1003A4004CE950E40E9409040E94DE03CB010E9440
:1003B400410380E690E00E94C4030E941204FF916E
:1003C400EF91DF91CF91BF91AF919F918F917F91E9
:1003D4006F915F914F913F912F910F900FBE0F90AE
:0403E4001F901895B9
:1003E800E89409C097FB3EF49095809570956195C7
:1003F8007F4F8F4F9F4F9923A9F0F92F96E9BB277D
:100408009395F695879577956795B795F111F8CFF8
:10041800FAF4BB0F11F460FF1BC06F5F7F4F8F4F63
:100428009F4F16C0882311F096E911C0772321F059
:100438009EE8872F762F05C0662371F096E8862FF1
:1004480070E060E02AF09A95660F771F881FDAF748
:0A045800880F9695879597F908958F
:100462008AB3806F8ABB41E050E061E070E081E0D6
:1004720090E00E94580041E050E062E070E081E0CC
:1004820090E00E94580041E050E063E070E081E0BB
:1004920090E00E94580040E050E062E070E081E0AD
:1004A20090E00E94D00082E00E949D0288E20E94B9
:1004B2009D028CE00E949D0286E00E949D020E94A5
:1004C20005042FEF80E792E0215080409040E1F751
:0604D20000C000000895C7
:1004D800CF93C82F41E050E061E070E081E090E008
:1004E8000E94D0008BB38F709C2F907F892B8BBB81
:1004F8000E9478032FEF39EF80E021503040804090
:10050800E1F700C000008BB3282F2F7030E1C39FA4
:10051800C0011124822B8BBB0E9478038FEF99EFC7
:1005280020E0815090402040E1F700C00000CF91CA
:02053800089524
:10053A00CF93C82F40E050E061E070E081E090E0A6
:10054A000E94D0008BB38F709C2F907F892B8BBB1E
:10055A000E9478032FEF39EF80E02150304080402D
:10056A00E1F700C000008BB3282F2F7030E1C39F42
:10057A00C0011124822B8BBB0E9478038FEF99EF65
:10058A0020E0815090402040E1F700C00000CF9168
:02059A000895C2
:10059C000E94270388F09F5798F0B92F9927B751DD
:1005AC00B0F0E1F0660F771F881F991F1AF0BA950B
:1005BC00C9F714C0B13091F00E94E503B1E0089581
:1005CC000C94E503672F782F8827B85F39F0B93F73
:1005DC00CCF3869577956795B395D9F73EF49095BE
:0E05EC008095709561957F4F8F4F9F4F0895BA
:1005FA0047E050E061E070E080E190E00E948F0304
:10060A000E9414040E9431022FEF81EE94E02150DF
:10061A0080409040E1F700C0000078940E941204E4
:10062A002FEF89E698E1215080409040E1F700C021
:04063A000000F6CFF7
:10063E0057FD9058440F551F59F05F3F71F0479585
:10064E00880F97FB991F61F09F3F79F0879508956A
:10065E00121613061406551FF2CF4695F1DF08C089
:10066E00161617061806991FF1CF869571056105A6
:04067E00089408953F
:10068200CF93DF93CDB7DEB72B970FB6F894DEBFCB
:100692000FBECDBF4AE0BE016F5F7F4F0E94D30302
:1006A200CE0101960E94C4032B960FB6F894DEBFCA
:0A06B2000FBECDBFDF91CF91089578
:1006BC00BB27FB015527AA27880F991FAA1FA41730
:1006CC0010F0A41B83955051B9F7A05DAA3308F024
:1006DC00A95DA193009779F7B111B1931192CB0158
:0406EC000C94B403B3
:1006F00041E050E063E070E081E090E00E94D000D3
:100700008FE396E00197F1F700C0000040E050E071
:0E07100063E070E081E090E00E94D000089568
:10071E0097B1892B87B987B1002476956795079491
:10072E00769567950794762F602D682B67B986B1FD
:08073E00482B46B9379A0895D3
:10074600092E0394000C11F4882352F0BB0F40F4D9
:10075600BF2B11F460FF04C06F5F7F4F8F4F9F4F19
:020766000895F4
:10076800DC01FC01672F71917723E1F7329704C010
:100778007C916D9370836291AE17BF07C8F308959B
:10078800CF93DF93EC018881882331F021960E9472
:0E0798006C0289918111FBCFDF91CF91089502
:1007A600BB274A3031F4992322F4BDE29095819516
:0607B6009F4F0C945F034D
:0E07BC000E94CE026894B1110C94E6030895D9
:0E07CA00E894BB2766277727CB0197F908959F
:0E07D80000240A94161617061806090608953E
:0E07E60000240A941216130614060506089540
:0C07F40097F99F6780E870E060E00895CE
:0A08000084B125B190E0922B089519
:08080A0081E00E949D020895A7
:080812000E9448010C94A303AD
:06081A009FEF80EC089541
:040820000C94000034
:04082400369A089563
:04082800339A089562
:04082C00206D5600E5
:00000001FF
