:100000000C942A000C9459010C9459010C94590138
:100010000C9459010C9459010C9459010C945901F8
:100020000C9459010C9459010C9459010C945901E8
:100030000C9459010C9459010C9459010C945901D8
:100040000C9459010C9459010C9459010C945901C8
:100050000C94590111241FBECFE5D8E0DEBFCDBFFF
:0C0060000E9426010C943400F894FFCF9D
:10006C00452BC9F181309105A9F01CF4892B39F08D
:10007C00089582309105C9F0039711F108952AB3C0
:10008C0081E090E002C0880F991F6A95E2F7822BFD
:10009C008ABB089527B381E090E002C0880F991FB6
:1000AC006A95E2F7822B87BB089524B381E090E038
:1000BC0002C0880F991F6A95E2F7822B84BB0895C2
:1000CC0021B381E090E002C0880F991F6A95E2F796
:1000DC00822B81BB089581309105B1F01CF4892BE2
:1000EC0039F0089582309105D9F0039729F10895DC
:1000FC002AB381E090E002C0880F991F6A95E2F75D
:10010C00809582238ABB089527B381E090E002C0DA
:10011C00880F991F6A95E2F78095822387BB089513
:10012C0024B381E090E002C0880F991F6A95E2F732
:10013C008095822384BB089521B381E090E002C0B6
:10014C00880F991F6A95E2F78095822381BB0895E9
:10015C00452BC9F181309105A9F01CF4892B39F09C
:10016C00089582309105C9F0039711F108952BB3CE
:10017C0081E090E002C0880F991F6A95E2F7822B0C
:10018C008BBB089528B381E090E002C0880F991FC3
:10019C006A95E2F7822B88BB089525B381E090E045
:1001AC0002C0880F991F6A95E2F7822B85BB0895D0
:1001BC0022B381E090E002C0880F991F6A95E2F7A4
:1001CC00822B82BB089581309105B1F01CF4892BF0
:1001DC0039F0089582309105D9F0039729F10895EB
:1001EC002BB381E090E002C0880F991F6A95E2F76B
:1001FC00809582238BBB089528B381E090E002C0E8
:10020C00880F991F6A95E2F78095822388BB089521
:10021C0025B381E090E002C0880F991F6A95E2F740
:10022C008095822385BB089522B381E090E002C0C3
:10023C00880F991F6A95E2F78095822382BB0895F7
:10024C0041E050E060E070E080E090E00E94360019
:10025C0040E050E060E070E082E090E00E94360008
:10026C0041E050E060E070E080E090E00E94AE0081
:10027C002FEF83EC99E0215080409040E1F700C0D3
:10028C00000040E050E060E070E080E090E00E9410
:10029C00AE002FEF89E698E1215080409040E1F7C5
:0602AC0000C00000F6CFC7
:0402B2000C940000A8
:00000001FF
