:100000000C942A000C94CA030C94CA030C94CA03DF
:100010000C94CA030C94CA030C94CA030C94CA032C
:100020000C94CA030C94CA030C94CA030C94CA031C
:100030000C94CA030C94CA030C94CA030C94CA030C
:100040000C94CA030C94CA030C94CA030C94CA03FC
:100050000C94CA0311241FBECFE5D8E0DEBFCDBF8C
:0C0060000E94A8030C943400F894FFCF19
:10006C000F931F93CF93DF9301E010E064E070E0F7
:10007C0083E090E00E94C902892B09F440C1C0E0E2
:10008C00D0E082B3887F82BB2FEF39EF80E0215024
:10009C0030408040E1F700C0000022B3C8010C2EB4
:1000AC0002C0880F991F0A94E2F7822B82BB8FEF54
:1000BC0099EF20E0815090402040E1F700C0000013
:1000CC0064E070E083E090E00E94C902892B79F033
:1000DC0082B3876082BB3FEF89EF90E03150804064
:1000EC009040E1F700C0000083E38C1B1CC182B37D
:1000FC00876082BB3FEF89EF90E0315080409040A9
:10010C00E1F700C000002196C330D10509F0B9CF4A
:10011C00F6C0C0E0D0E082B3887F82BB2FEF39EF0E
:10012C0080E0215030408040E1F700C0000022B355
:10013C00C8010C2E02C0880F991F0A94E2F7822B7B
:10014C0082BB8FEF99EF20E0815090402040E1F787
:10015C0000C0000065E070E083E090E00E94C902FE
:10016C00892B79F082B3876082BB3FEF89EF90E0F7
:10017C00315080409040E1F700C0000086E38C1BBA
:10018C00D2C082B3876082BB3FEF89EF90E03150E1
:10019C0080409040E1F700C000002196C330D105AB
:1001AC0009F0B9CFB6C066E070E083E090E00E9441
:1001BC00C902892B09F449C0C0E0D0E082B3887F22
:1001CC0082BB2FEF39EF80E0215030408040E1F7C7
:1001DC0000C0000022B3C8010C2E02C0880F991F6A
:1001EC000A94E2F7822B82BB8FEF99EF20E08150CB
:1001FC0090402040E1F700C0000066E070E083E032
:10020C0090E00E94C902892B79F082B3876082BB8F
:10021C003FEF89EF90E0315080409040E1F700C013
:10022C00000089E38C1B7FC082B3876082BB3FEFE9
:10023C0089EF90E0315080409040E1F700C0000021
:10024C002196C330D10509F0B9CF67E070E083E0A7
:10025C0090E00E94C902892B09F408CFC0E0D0E0DD
:10026C0082B3887F82BB2FEF39EF80E02150304082
:10027C008040E1F700C0000022B3C8010C2E02C080
:10028C00880F991F0A94E2F7822B82BB8FEF99EFAC
:10029C0020E0815090402040E1F700C0000067E072
:1002AC0070E083E090E00E94C902892B91F082B348
:1002BC00876082BB3FEF89EF90E0315080409040E7
:1002CC00E1F700C000002097B1F02197B1F08AE26D
:1002DC002AC082B3876082BB2FEF39EF80E02150B8
:1002EC0030408040E1F700C000002196C330D105BA
:1002FC0009F0B6CFBBCE83E216C080E314C065E034
:10030C0070E083E090E00E94C902892B09F001CFD4
:10031C004ACF66E070E083E090E00E94C902892B2E
:10032C0009F04ACF92CFDF91CF911F910F91089591
:10033C00452BC9F181309105A9F01CF4892B39F0BA
:10034C00089582309105C9F0039711F108952AB3ED
:10035C0081E090E002C0880F991F6A95E2F7822B2A
:10036C008ABB089527B381E090E002C0880F991FE3
:10037C006A95E2F7822B87BB089524B381E090E065
:10038C0002C0880F991F6A95E2F7822B84BB0895EF
:10039C0021B381E090E002C0880F991F6A95E2F7C3
:1003AC00822B81BB089581309105B1F01CF4892B0F
:1003BC0039F0089582309105D9F0039729F1089509
:1003CC002AB381E090E002C0880F991F6A95E2F78A
:1003DC00809582238ABB089527B381E090E002C008
:1003EC00880F991F6A95E2F78095822387BB089541
:1003FC0024B381E090E002C0880F991F6A95E2F760
:10040C008095822384BB089521B381E090E002C0E3
:10041C00880F991F6A95E2F78095822381BB089516
:10042C00452BC9F181309105A9F01CF4892B39F0C9
:10043C00089582309105C9F0039711F108952BB3FB
:10044C0081E090E002C0880F991F6A95E2F7822B39
:10045C008BBB089528B381E090E002C0880F991FF0
:10046C006A95E2F7822B88BB089525B381E090E072
:10047C0002C0880F991F6A95E2F7822B85BB0895FD
:10048C0022B381E090E002C0880F991F6A95E2F7D1
:10049C00822B82BB089581309105B1F01CF4892B1D
:1004AC0039F0089582309105D9F0039729F1089518
:1004BC002BB381E090E002C0880F991F6A95E2F798
:1004CC00809582238BBB089528B381E090E002C015
:1004DC00880F991F6A95E2F78095822388BB08954F
:1004EC0025B381E090E002C0880F991F6A95E2F76E
:1004FC008095822385BB089522B381E090E002C0F1
:10050C00880F991F6A95E2F78095822382BB089524
:10051C008AB3806F8ABB41E050E061E070E081E01B
:10052C0090E00E949E0141E050E062E070E081E0CA
:10053C0090E00E949E0141E050E063E070E081E0B9
:10054C0090E00E949E0140E050E062E070E081E0AB
:10055C0090E00E94160282E00E94320388E20E9420
:10056C0032038CE00E94320386E00E9432030E9428
:10057C00C6032FEF80E792E0215080409040E1F7D6
:06058C0000C0000008950C
:1005920081309105A1F01CF4892B39F02EC08230F4
:1005A2009105B9F00397F9F028C089B390E002C031
:1005B200959587956A95E2F781709927089586B394
:1005C20090E002C0959587956A95E2F78170992728
:1005D200089583B390E002C0959587956A95E2F7F6
:1005E20081709927089580B390E002C09595879510
:1005F2006A95E2F781709927089580E090E0089566
:10060200CF93C82F41E050E061E070E081E090E0DC
:100612000E9416028BB38F709C2F907F892B8BBB0D
:100622000E9491032FEF39EF80E02150304080404B
:10063200E1F700C000008BB3282F2F7030E1C39F79
:10064200C0011124822B8BBB0E9491038FEF99EF83
:1006520020E0815090402040E1F700C00000CF919F
:020662000895F9
:10066400CF93C82F40E050E061E070E081E090E07B
:100674000E9416028BB38F709C2F907F892B8BBBAB
:100684000E9491032FEF39EF80E0215030408040E9
:10069400E1F700C000008BB3282F2F7030E1C39F17
:1006A400C0011124822B8BBB0E9491038FEF99EF21
:1006B40020E0815090402040E1F700C00000CF913D
:0206C400089597
:1006C6008130910589F01CF4892B39F022C08230E3
:1006D600910589F00397B1F01CC081E0672B09F4FE
:1006E60080E081958ABB089581E0672B09F480E05C
:1006F600819587BB089581E0672B09F480E0819599
:1007060084BB089581E0672B09F480E0819581BB65
:0C07160008951ABA17BA14BA11BA08955F
:1007220041E050E063E070E081E090E00E94160258
:100732008FE396E00197F1F700C0000040E050E03F
:0E07420063E070E081E090E00E9416020895EE
:100750000E94BC030E948E0261E070E082E090E0A3
:100760000E94630304C00E9436000E9401030E949D
:0807700036008111F8CFFBCF28
:1007780081B3876081BB81B38F7081BB82B387608F
:0407880082BB089593
:08078C0081E00E943203089590
:040794000C940000C1
:00000001FF
