:100000000C942A000C9465020C9465020C94650211
:100010000C9465020C9465020C9465020C946502C4
:100020000C9465020C9465020C9465020C946502B4
:100030000C9465020C9465020C9465020C946502A4
:100040000C9465020C9465020C9465020C94650294
:100050000C94650211241FBECFE5D8E0DEBFCDBFF2
:0C0060000E94C3010C943400F894FFCF00
:10006C00452BC9F181309105A9F01CF4892B39F08D
:10007C00089582309105C9F0039711F108952AB3C0
:10008C0081E090E002C0880F991F6A95E2F7822BFD
:10009C008ABB089527B381E090E002C0880F991FB6
:1000AC006A95E2F7822B87BB089524B381E090E038
:1000BC0002C0880F991F6A95E2F7822B84BB0895C2
:1000CC0021B381E090E002C0880F991F6A95E2F796
:1000DC00822B81BB089581309105B1F01CF4892BE2
:1000EC0039F0089582309105D9F0039729F10895DC
:1000FC002AB381E090E002C0880F991F6A95E2F75D
:10010C00809582238ABB089527B381E090E002C0DA
:10011C00880F991F6A95E2F78095822387BB089513
:10012C0024B381E090E002C0880F991F6A95E2F732
:10013C008095822384BB089521B381E090E002C0B6
:10014C00880F991F6A95E2F78095822381BB0895E9
:10015C00452BC9F181309105A9F01CF4892B39F09C
:10016C00089582309105C9F0039711F108952BB3CE
:10017C0081E090E002C0880F991F6A95E2F7822B0C
:10018C008BBB089528B381E090E002C0880F991FC3
:10019C006A95E2F7822B88BB089525B381E090E045
:1001AC0002C0880F991F6A95E2F7822B85BB0895D0
:1001BC0022B381E090E002C0880F991F6A95E2F7A4
:1001CC00822B82BB089581309105B1F01CF4892BF0
:1001DC0039F0089582309105D9F0039729F10895EB
:1001EC002BB381E090E002C0880F991F6A95E2F76B
:1001FC00809582238BBB089528B381E090E002C0E8
:10020C00880F991F6A95E2F78095822388BB089521
:10021C0025B381E090E002C0880F991F6A95E2F740
:10022C008095822385BB089522B381E090E002C0C3
:10023C00880F991F6A95E2F78095822382BB0895F7
:10024C008AB3806F8ABB41E050E061E070E081E0EE
:10025C0090E00E94360041E050E062E070E081E006
:10026C0090E00E94360041E050E063E070E081E0F5
:10027C0090E00E94360040E050E062E070E081E0E7
:10028C0090E00E94AE0082E00E94920188E20E94FF
:10029C0092018CE00E94920186E00E9492010E94E1
:1002AC0061022FEF80E792E0215080409040E1F70F
:0602BC0000C000000895DF
:1002C200CF93C82F41E050E061E070E081E090E020
:1002D2000E94AE008BB38F709C2F907F892B8BBBBB
:1002E2000E9417022FEF39EF80E02150304080400A
:1002F200E1F700C000008BB3282F2F7030E1C39FBD
:10030200C0011124822B8BBB0E9417028FEF99EF41
:1003120020E0815090402040E1F700C00000CF91E2
:0203220008953C
:10032400CF93C82F40E050E061E070E081E090E0BE
:100334000E94AE008BB38F709C2F907F892B8BBB58
:100344000E9417022FEF39EF80E0215030408040A7
:10035400E1F700C000008BB3282F2F7030E1C39F5A
:10036400C0011124822B8BBB0E9417028FEF99EFDF
:1003740020E0815090402040E1F700C00000CF9180
:020384000895DA
:100386000E9426012FEF30E782E021503040804066
:10039600E1F700C000006AE070E080E00E945802C9
:1003A6009FEF20E732E0915020403040E1F700C057
:0A03B600000090E00E94E001FFCF7C
:1003C000CF93DF93CDB7DEB72B970FB6F894DEBF90
:1003D0000FBECDBF4AE0BE016F5F7F4F0E944D024E
:1003E000CE0101960E943E022B960FB6F894DEBF16
:0A03F0000FBECDBFDF91CF9108953D
:1003FA00BB27FB015527AA27880F991FAA1FA417F5
:10040A0010F0A41B83955051B9F7A05DAA3308F0E8
:10041A00A95DA193009779F7B111B1931192CB011C
:04042A000C942E02FE
:10042E0041E050E063E070E081E090E00E94AE00B9
:10043E008FE396E00197F1F700C0000040E050E036
:0E044E0063E070E081E090E00E94AE0008954F
:10045C00DC01FC01672F71917723E1F7329704C01F
:10046C007C916D9370836291AE17BF07C8F30895AA
:10047C00CF93DF93EC018881882331F021960E9481
:0E048C00610189918111FBCFDF91CF9108951D
:10049A00BB274A3031F4992322F4BDE29095819525
:0604AA009F4F0C94FE01BF
:1004B000CB01E199FECF9FBB8EBBE09A99278DB30C
:0204C00008959D
:0804C20081E00E9492010895FF
:0404CA000C9400008E
:00000001FF
