:100000000C942D000C941A010C941A010C941A01F2
:100010000C941A010C941A010C941A010C941A01F4
:100020000C941A010C941A010C941A010C945700A8
:100030000C941A010C941A010C941A010C941A01D4
:100040000C941A010C941A010C941A010C941A01C4
:100050000C941A0100600064800011241FBECFE5DB
:10006000D8E0DEBFCDBFE4E5F0E040E017C0B591D9
:10007000A59135912591059107FD0CC0959185912C
:10008000EF01F92FE82F05900D92A217B307D9F7CA
:10009000FE0104C01D92A217B307E1F7E935F4078A
:0E00A00031F70E94F3000C945500F894FFCF46
:1000AE001F920F920FB60F9211242F933F934F93DF
:1000BE005F936F937F938F939F93AF93BF93EF93C2
:1000CE00FF9380916200909163000196909363007C
:1000DE0080936200809160009091610001969093F0
:1000EE006100809360004E9741F483E090E00E949F
:1000FE00D100109261001092600080916200909188
:10010E006300CC9741F482E090E00E94D1001092FF
:10011E00630010926200FF91EF91BF91AF919F919A
:10012E008F917F916F915F914F913F912F910F9092
:08013E000FBE0F901F901895F1
:100146008130910589F01CF4892B39F022C0823068
:10015600910589F00397B1F01CC081E0672B09F483
:1001660080E081958ABB089581E0672B09F480E0E1
:10017600819587BB089581E0672B09F480E081951E
:1001860084BB089581E0672B09F480E0819581BBEB
:0C01960008951ABA17BA14BA11BA0895E5
:1001A2008130910571F01CF4892B39F016C0823030
:1001B200910559F0039769F010C08BB380958BBB02
:1001C200089588B3809588BB089585B3809585BBD3
:1001D200089582B3809582BB08951ABA17BA14BAE9
:0401E20011BA0895B1
:1001E60061E070E082E090E00E94A30061E070E0D0
:1001F60083E090E00E94A30065E070E080E090E07C
:0C0206000E9409010E9416017894FFCFAD
:1002120093B7977B93BF93B7987F93BF93B7892B7D
:0A02220083BF83B7682B63BF089504
:08022C0089B7816089BF0895C4
:040234000C94000026
:00000001FF
