:100000000C942D000C94C1010C94C1010C94C101FD
:100010000C94C1010C94C1010C94C1010C94C10158
:100020000C94C1010C94C1010C9461010C94C101A8
:100030000C94C1010C94C1010C94C1010C94C10138
:100040000C94C1010C94C1010C94C1010C94C10128
:100050000C94C10100600062800011241FBECFE536
:10006000D8E0DEBFCDBFE4E5F0E040E017C0B591D9
:10007000A59135912591059107FD0CC0959185912C
:10008000EF01F92FE82F05900D92A217B307D9F7CA
:10009000FE0104C01D92A217B307E1F7E935F4078A
:0E00A00031F70E94CF000C945500F894FFCF6A
:1000AE00452BC9F181309105A9F01CF4892B39F04B
:1000BE00089582309105C9F0039711F108952AB37E
:1000CE0081E090E002C0880F991F6A95E2F7822BBB
:1000DE008ABB089527B381E090E002C0880F991F74
:1000EE006A95E2F7822B87BB089524B381E090E0F6
:1000FE0002C0880F991F6A95E2F7822B84BB089580
:10010E0021B381E090E002C0880F991F6A95E2F753
:10011E00822B81BB089581309105B1F01CF4892B9F
:10012E0039F0089582309105D9F0039729F1089599
:10013E002AB381E090E002C0880F991F6A95E2F71A
:10014E00809582238ABB089527B381E090E002C098
:10015E00880F991F6A95E2F78095822387BB0895D1
:10016E0024B381E090E002C0880F991F6A95E2F7F0
:10017E008095822384BB089521B381E090E002C074
:10018E00880F991F6A95E2F78095822381BB0895A7
:10019E0061E070E082E090E00E948F0140E050E06C
:1001AE0060E070E083E090E00E94570040E050E095
:1001BE0061E070E083E090E00E9457002FEF83EC47
:1001CE0099E0215080409040E1F700C0000065E0CA
:1001DE0070E088E090E00E94A90188EC0E94C301C3
:1001EE0081E090E00E94B6017894C8ECD0E060E027
:1001FE0070E083E090E00E942901892B69F02A9635
:10020E008C2F0E94C3012FEF83EC99E02150804088
:10021E009040E1F700C0000061E070E083E090E004
:10022E000E942901892B19F32A978C2F0E94C30152
:10023E002FEF83EC99E0215080409040E1F700C011
:04024E000000D5CF08
:1002520081309105A1F01CF4892B39F02EC0823037
:100262009105B9F00397F9F028C089B390E002C074
:10027200959587956A95E2F781709927089586B3D7
:1002820090E002C0959587956A95E2F7817099276B
:10029200089583B390E002C0959587956A95E2F739
:1002A20081709927089580B390E002C09595879553
:1002B2006A95E2F781709927089580E090E00895A9
:1002C2001F920F920FB60F9211242F938F939F9329
:1002D20080916000909161000196909361008093FB
:1002E200600085BB2FEF80E792E021508040904074
:1002F200E1F700C0000080916000909161008F3FA3
:10030200910521F410926100109260009F918F91EB
:0C0312002F910F900FBE0F901F901895B8
:10031E008130910561F01CF4892B39F00EC08230CA
:10032E00910539F0039739F008C06BBB089568BB8F
:10033E00089565BB089562BB08951ABA17BA14BA28
:04034E0011BA089543
:1003520093B7977B93BF93B7987F93BF93B7892B3C
:0A03620083BF83B7682B63BF0895C3
:10036C0099B721E030E002C0220F331F8A95E2F7E3
:06037C00292B29BF0895A2
:040382000C940000D7
:040386008CBF08958B
:00000001FF
